:020000040000fa
:080000000001040000000000f3
:020000040000fa
:0400080032020000c0
:020000040000fa
:04000c0032020000bc
:020000040000fa
:0400100032020000b8
:020000040000fa
:0400140032020000b4
:020000040000fa
:0400180032020000b0
:020000040000fa
:04001c0032020000ac
:020000040000fa
:0400200032020000a8
:020000040000fa
:0400240032020000a4
:020000040000fa
:0400280032020000a0
:020000040000fa
:04002c00320200009c
:020000040000fa
:040030003202000098
:020000040000fa
:0400340004020000c2
:020000040000fa
:040038003202000090
:020000040000fa
:04003c00320200008c
:020000040000fa
:040040003202000088
:020000040000fa
:040044003202000084
:020000040000fa
:040048003202000080
:020000040000fa
:04004c00320200007c
:020000040000fa
:040050003202000078
:020000040000fa
:040054003202000074
:020000040000fa
:040058003202000070
:020000040000fa
:04005c00320200006c
:020000040000fa
:040060003202000068
:020000040000fa
:040064003202000064
:020000040000fa
:040068003202000060
:020000040000fa
:04006c00320200005c
:020000040000fa
:040070003202000058
:020000040000fa
:040074003202000054
:020000040000fa
:040078003202000050
:020000040000fa
:04007c00320200004c
:020000040000fa
:040080003202000048
:020000040000fa
:040084003202000044
:020000040000fa
:040088003202000040
:020000040000fa
:04008c00320200003c
:020000040000fa
:040090003202000038
:020000040000fa
:040094003202000034
:020000040000fa
:040098003202000030
:020000040000fa
:04009c00320200002c
:020000040000fa
:0400a0003202000028
:020000040000fa
:0400a4003202000024
:020000040000fa
:0400a8003202000020
:020000040000fa
:0400ac00320200001c
:020000040000fa
:0400b0003202000018
:020000040000fa
:0400b4003202000014
:020000040000fa
:0400b8003202000010
:020000040000fa
:0400bc00320200000c
:020000040000fa
:0400c0003202000008
:020000040000fa
:0400c4003202000004
:020000040000fa
:0400c8003202000000
:020000040000fa
:0400cc0032020000fc
:020000040000fa
:0400d00032020000f8
:020000040000fa
:0400d40032020000f4
:020000040000fa
:0400d80032020000f0
:020000040000fa
:0400dc0032020000ec
:020000040000fa
:0400e00032020000e8
:020000040000fa
:0400e40032020000e4
:020000040000fa
:0400e80032020000e0
:020000040000fa
:0400ec0032020000dc
:020000040000fa
:0400f00032020000d8
:020000040000fa
:0400f40032020000d4
:020000040000fa
:0400f80032020000d0
:020000040000fa
:0400fc0032020000cc
:020000040000fa
:0401000032020000c7
:020000040000fa
:0401040032020000c3
:020000040000fa
:0401080032020000bf
:020000040000fa
:04010c0032020000bb
:020000040000fa
:0401100032020000b7
:020000040000fa
:0401140032020000b3
:020000040000fa
:0401180032020000af
:020000040000fa
:04011c0032020000ab
:020000040000fa
:0401200032020000a7
:020000040000fa
:0401240032020000a3
:020000040000fa
:04012800320200009f
:020000040000fa
:04012c00320200009b
:020000040000fa
:040130003202000097
:020000040000fa
:040134003202000093
:020000040000fa
:04013800320200008f
:020000040000fa
:04013c00320200008b
:020000040000fa
:040140003202000087
:020000040000fa
:040144003202000083
:020000040000fa
:04014800320200007f
:020000040000fa
:04014c00320200007b
:020000040000fa
:040150003202000077
:020000040000fa
:040154003202000073
:020000040000fa
:04015800320200006f
:020000040000fa
:04015c00320200006b
:020000040000fa
:040160003202000067
:020000040000fa
:040164003202000063
:020000040000fa
:04016800320200005f
:020000040000fa
:04016c00320200005b
:020000040000fa
:040170003202000057
:020000040000fa
:040174003202000053
:020000040000fa
:04017800320200004f
:020000040000fa
:04017c00320200004b
:020000040000fa
:040180003202000047
:020000040000fa
:040184003202000043
:020000040000fa
:04018800320200003f
:020000040000fa
:04018c00320200003b
:020000040000fa
:040190003202000037
:020000040000fa
:040194003202000033
:020000040000fa
:04019800320200002f
:020000040000fa
:04019c00320200002b
:020000040000fa
:0401a0003202000027
:020000040000fa
:0401a4003202000023
:020000040000fa
:0401a800320200001f
:020000040000fa
:0401ac00320200001b
:020000040000fa
:0401b0003202000017
:020000040000fa
:0401b4003202000013
:020000040000fa
:0401b800320200000f
:020000040000fa
:0401bc00320200000b
:020000040000fa
:0401c0003202000007
:020000040000fa
:0401c4003202000003
:020000040000fa
:0401c80032020000ff
:020000040000fa
:0401cc0032020000fb
:020000040000fa
:0401d00032020000f7
:020000040000fa
:0401d40032020000f3
:020000040000fa
:0401d80032020000ef
:020000040000fa
:0401dc0032020000eb
:020000040000fa
:0401e00032020000e7
:020000040000fa
:0401e40032020000e3
:020000040000fa
:0401e80032020000df
:020000040000fa
:0401ec0032020000db
:020000040000fa
:0401f00032020000d7
:020000040000fa
:0401f40032020000d3
:020000040000fa
:0401f80032020000cf
:020000040000fa
:0401fc0032020000cb
:020000040000fa
:100200004f8020000eff27000e0188000000000034
:10021000000020000000e000020032000001200089
:100220002002880014000700900007000000e00092
:1002300003003a00603a200001002000020037006d
:100240000000200001002000810f7000010032003a
:1002500014000700000020000000e000020032004f
:1002600000000200000000009203020000000000f5
:100270000040da000000fe004440a90020002000f9
:100280000000e00003003200100020009001880010
:100290004440a800000006008a1f78008b1f7800e9
:1002a00000000600a1028800800478000000eb0036
:1002b0001f003700e284440054a0b4009905ba003e
:1002c000e284440054a0b4009906ba00e2844400d9
:1002d00054a0b4000006eb00476fde00fd07b2003b
:1002e000ae018800636ce10003003a00eaff0700fa
:1002f0000000eb000e003700606ce10008003a00df
:10030000004deb000a05e800020039003420ec0043
:100310000af0a0008b05e900f9ff3e000400370059
:100320006168e100010032000086eb000b0007006d
:1003300019c7ba001905ba000e04e00003003a001c
:100340000a00e000dbff3a0000000600fe07b200f2
:10035000ae0288008a047800f5ff37000cd0a300b5
:10036000e20f4d001c00390089027800354dba00bb
:100370000a05e800020039003420ec000af0a00071
:100380008b05e9000f003200254dba000a05e80090
:10039000020039003420ec000af0a0008b05e900cf
:1003a000080032000c00e0000600320015cdba0053
:1003b0000a05e800020039003420ec000af0a00031
:1003c0008b05e9008984e80054a0b4000b00e0002c
:1003d000e2ff3a00000006009902ba00055d7800cd
:1003e0008b05e900f7ff3200c82ade00055d7800c2
:1003f0008b05e900f3ff32000c00e000f1ff320052
:1004000019ddba00eeff3700801f78003200f800d7
:100410003400f80010002000a00188001000200027
:10042000900188000000fa00104080000000e80001
:100430001040880010408000ea0f500003003a008e
:1004400010c0b30000e8b7000228ef008860a900e0
:100450000080fa003400f9003200f9004f00780003
:10046000004006000040da000000fe000000050029
:020000040000fa
:100470000000fa0090012000001d88000000280004
:10048000c01c88009a23ef009b43a8009b83a80010
:100490000080fa00000006000200fa00004f780019
:1004a00000000000d11c80000020200000806000bf
:1004b0000000e000fbff3a001e80fb00e01c88000b
:1004c0000080fa00000006000600fa000e81e80035
:1004d0000009780064004700010878000000eb0084
:1004e000000f78000a0037000e80e8001000780046
:1004f00010407800e8ff07000e80e8001000780048
:100500008000e8000e80e800010878001e0fe80077
:1005100064004700100078009e0f5000f2ff3e007c
:100520000080fa00000006000000fa004627ef00f5
:100530004827ef004a27ef004647a800313a8000dd
:10054000f0f02f00808060000007200001007000a4
:10055000303a880010c0b3004ae7b700513a800033
:1005600000f0210001007000503a88000080fa007d
:10057000000006000200fa00000f78001e0078005c
:10058000004078007f4060000080fb007f0060003a
:10059000623a800001fe2f008100610001007000be
:1005a000603a880047e7a80000000000303a800069
:1005b000610060000000e000fcff320047e7a90096
:1005c000903880000080fa00000006000000fa0069
:1005d0006206a900020007000080fa000000060081
:1005e0000000fa0001088000f00b2000008160008c
:1005f000600420007105200003102000804978006d
:100600008149780082497800a13d800000fc2f00dc
:1006100000806000a000b300a03d8800213f800062
:10062000f00f280080806000003020000100700082
:10063000203f880000088000000178000260a000d0
:10064000600420007105200003102000804978001c
:1006500081497800824978000080fa000000060095
:100660000000fa001200070001003700000000003f
:1006700000c8bf000004e000fcff320030338000ff
:1006800000407800614060000004a200614060000a
:100690000080fb0061006000313380000100a10098
:1006a00001007000303388000068ef00f0ff370071
:1006b0000000fa002100070095e1a8000080fa0080
:1006c000000006000000fa0095a1a90094c1a9004d
:1006d0009421a900a10c8000f0cf2f0000806000c1
:1006e000a00c8800a10c8000000320000100700015
:1006f000a00c88009021ef00a0612000900c8800e1
:100700000080fa00000006000000fa00afff0700ba
:10071000ecff070056ff070083ff07000080fa0088
:10072000000006000000fa00f7ff0700ccff0700fa
:100730000000eb000080fa00000006000000fa0054
:0c0740009860a8000080fa00000006008d
:020000040000fa
:10074c000008000004000000800000000000000011
:020000040000fa
:020000040015e5
:047e0000ffffff0081
:020000040000fa
:020000040015e5
:047e2000ff1f000040
:020000040000fa
:020000040015e5
:047e3000faffff0056
:020000040000fa
:020000040015e5
:047e3800bdffff008b
:020000040000fa
:020000040015e5
:047e40009fffff00a1
:020000040000fa
:020000040015e5
:047e4800ffffff0039
:020000040000fa
:020000040015e5
:047e5000deffff0052
:020000040000fa
:020000040015e5
:047e5800ffffff0029
:00000001FF
