:020000040000fa
:080000000001040000000000f3
:020000040000fa
:0400080046020000ac
:020000040000fa
:04000c0046020000a8
:020000040000fa
:0400100046020000a4
:020000040000fa
:0400140046020000a0
:020000040000fa
:04001800460200009c
:020000040000fa
:04001c004602000098
:020000040000fa
:040020004602000094
:020000040000fa
:040024004602000090
:020000040000fa
:04002800460200008c
:020000040000fa
:04002c004602000088
:020000040000fa
:040030004602000084
:020000040000fa
:040034004602000080
:020000040000fa
:04003800460200007c
:020000040000fa
:04003c004602000078
:020000040000fa
:040040004602000074
:020000040000fa
:040044004602000070
:020000040000fa
:04004800460200006c
:020000040000fa
:04004c004602000068
:020000040000fa
:040050004602000064
:020000040000fa
:040054004602000060
:020000040000fa
:04005800460200005c
:020000040000fa
:04005c004602000058
:020000040000fa
:040060004602000054
:020000040000fa
:040064004602000050
:020000040000fa
:04006800460200004c
:020000040000fa
:04006c004602000048
:020000040000fa
:040070004602000044
:020000040000fa
:040074000402000082
:020000040000fa
:04007800460200003c
:020000040000fa
:04007c004602000038
:020000040000fa
:040080004602000034
:020000040000fa
:040084004602000030
:020000040000fa
:04008800460200002c
:020000040000fa
:04008c004602000028
:020000040000fa
:040090004602000024
:020000040000fa
:040094004602000020
:020000040000fa
:04009800460200001c
:020000040000fa
:04009c004602000018
:020000040000fa
:0400a0004602000014
:020000040000fa
:0400a4004602000010
:020000040000fa
:0400a800460200000c
:020000040000fa
:0400ac004602000008
:020000040000fa
:0400b0004602000004
:020000040000fa
:0400b4004602000000
:020000040000fa
:0400b80046020000fc
:020000040000fa
:0400bc0046020000f8
:020000040000fa
:0400c00046020000f4
:020000040000fa
:0400c40046020000f0
:020000040000fa
:0400c80046020000ec
:020000040000fa
:0400cc0046020000e8
:020000040000fa
:0400d00046020000e4
:020000040000fa
:0400d40046020000e0
:020000040000fa
:0400d80046020000dc
:020000040000fa
:0400dc0046020000d8
:020000040000fa
:0400e00046020000d4
:020000040000fa
:0400e40046020000d0
:020000040000fa
:0400e80046020000cc
:020000040000fa
:0400ec0046020000c8
:020000040000fa
:0400f00046020000c4
:020000040000fa
:0400f40046020000c0
:020000040000fa
:0400f80046020000bc
:020000040000fa
:0400fc0046020000b8
:020000040000fa
:0401000046020000b3
:020000040000fa
:0401040046020000af
:020000040000fa
:0401080046020000ab
:020000040000fa
:04010c0046020000a7
:020000040000fa
:0401100046020000a3
:020000040000fa
:04011400460200009f
:020000040000fa
:04011800460200009b
:020000040000fa
:04011c004602000097
:020000040000fa
:040120004602000093
:020000040000fa
:04012400460200008f
:020000040000fa
:04012800460200008b
:020000040000fa
:04012c004602000087
:020000040000fa
:040130004602000083
:020000040000fa
:04013400460200007f
:020000040000fa
:04013800460200007b
:020000040000fa
:04013c004602000077
:020000040000fa
:040140004602000073
:020000040000fa
:04014400460200006f
:020000040000fa
:04014800460200006b
:020000040000fa
:04014c004602000067
:020000040000fa
:040150004602000063
:020000040000fa
:04015400460200005f
:020000040000fa
:04015800460200005b
:020000040000fa
:04015c004602000057
:020000040000fa
:040160004602000053
:020000040000fa
:04016400460200004f
:020000040000fa
:04016800460200004b
:020000040000fa
:04016c004602000047
:020000040000fa
:040170004602000043
:020000040000fa
:04017400460200003f
:020000040000fa
:04017800460200003b
:020000040000fa
:04017c004602000037
:020000040000fa
:040180004602000033
:020000040000fa
:04018400460200002f
:020000040000fa
:04018800460200002b
:020000040000fa
:04018c004602000027
:020000040000fa
:040190004602000023
:020000040000fa
:04019400460200001f
:020000040000fa
:04019800460200001b
:020000040000fa
:04019c004602000017
:020000040000fa
:0401a0004602000013
:020000040000fa
:0401a400460200000f
:020000040000fa
:0401a800460200000b
:020000040000fa
:0401ac004602000007
:020000040000fa
:0401b0004602000003
:020000040000fa
:0401b40046020000ff
:020000040000fa
:0401b80046020000fb
:020000040000fa
:0401bc0046020000f7
:020000040000fa
:0401c00046020000f3
:020000040000fa
:0401c40046020000ef
:020000040000fa
:0401c80046020000eb
:020000040000fa
:0401cc0046020000e7
:020000040000fa
:0401d00046020000e3
:020000040000fa
:0401d40046020000df
:020000040000fa
:0401d80046020000db
:020000040000fa
:0401dc0046020000d7
:020000040000fa
:0401e00046020000d3
:020000040000fa
:0401e40046020000cf
:020000040000fa
:0401e80046020000cb
:020000040000fa
:0401ec0046020000c7
:020000040000fa
:0401f00046020000c3
:020000040000fa
:0401f40046020000bf
:020000040000fa
:0401f80046020000bb
:020000040000fa
:0401fc0046020000b7
:020000040000fa
:100200002f8020000eff27000e0188000000000054
:10021000000020000000e000020032000001200089
:1002200020028800140007009a0007000000e00088
:1002300003003a00202e20000100200002003700b9
:100240000000200001002000810f7000010032003a
:1002500014000700000020000000e000020032004f
:100260000000020000000000ce02020000000000ba
:100270000040da000000fe004440a90020002000f9
:100280000000e00003003200100020009001880010
:100290004440a800000006008a1f78008b1f7800e9
:1002a00000000600a1028800800478000000eb0036
:1002b0001f003700e284440054a0b4009905ba003e
:1002c000e284440054a0b4009906ba00e2844400d9
:1002d00054a0b4000006eb00476fde00fd07b2003b
:1002e000ae018800636ce10003003a00eaff0700fa
:1002f0000000eb000e003700606ce10008003a00df
:10030000004deb000a05e800020039003420ec0043
:100310000af0a0008b05e900f9ff3e000400370059
:100320006168e100010032000086eb000b0007006d
:1003300019c7ba001905ba000e04e00003003a001c
:100340000a00e000dbff3a0000000600fe07b200f2
:10035000ae0288008a047800f5ff37000cd0a300b5
:10036000e20f4d001c00390089027800354dba00bb
:100370000a05e800020039003420ec000af0a00071
:100380008b05e9000f003200254dba000a05e80090
:10039000020039003420ec000af0a0008b05e900cf
:1003a000080032000c00e0000600320015cdba0053
:1003b0000a05e800020039003420ec000af0a00031
:1003c0008b05e9008984e80054a0b4000b00e0002c
:1003d000e2ff3a00000006009902ba00055d7800cd
:1003e0008b05e900f7ff3200c82ade00055d7800c2
:1003f0008b05e900f3ff32000c00e000f1ff320052
:1004000019ddba00eeff3700809fbe003200f80011
:100410003400f80010002000a00188001000200027
:10042000900188000000fa00d00480004300de0044
:10043000614060008080fb00500480004300de00cb
:10044000614060000080fb00008060000000e00070
:10045000080032006135800000002200008060004a
:100460000000e00003003200ada6a90010c0b300f8
:1004700000e8b7008a60a9000080fa003400f900a3
:100480003200f9004f00be00004006000040da00d4
:080490000000fe000000050061
:020000040000fa
:100498000000fa00300007000100370000000000eb
:1004a80000c8bf000004e000fcff32000068ef0055
:1004b8003033800000407800614060000004a200f2
:1004c800614060000080fb00610060003133800003
:1004d8000100a1000100700030338800803e200038
:1004e80001000700eeff37000600fa00e4004700ad
:1004f800800878000000eb00000f78000f0037003c
:100508008000eb000e80e800010878000500370045
:100518000e80e800100078008000e8000e80e800f7
:10052800010878000e80e80090007800e00f2000b5
:10053800808f5000f6ff36001e0fe8006400470069
:10054800100078009e007800808f5000ecff390082
:100558000080fa00000006000000fa005fe6a8002c
:10056800aba6a800ada6a9008a60a9009a60a80059
:100578000080fa00000006000000fa006206a900e8
:100588006606a9009fa6a800a3a6a8000080fa00f6
:10059800000006000000fa0004000700bcff070086
:1005a8000000eb000080fa00000006000000fa00de
:0c05b800f1ff07000080fa0000000600c0
:020000040000fa
:1005c400000800000200000080000000000000009d
:020000040000fa
:020000040015e5
:047e0000ffffff0081
:020000040000fa
:020000040015e5
:047e2000ff1f000040
:020000040000fa
:020000040015e5
:047e3000faffff0056
:020000040000fa
:020000040015e5
:047e3800bdffff008b
:020000040000fa
:020000040015e5
:047e40009fffff00a1
:020000040000fa
:020000040015e5
:047e4800ffffff0039
:020000040000fa
:020000040015e5
:047e5000deffff0052
:020000040000fa
:020000040015e5
:047e5800ffffff0029
:00000001FF
