:020000040000fa
:080000000001040000000000f3
:020000040000fa
:04000800580200009a
:020000040000fa
:04000c005802000096
:020000040000fa
:040010005802000092
:020000040000fa
:04001400580200008e
:020000040000fa
:04001800580200008a
:020000040000fa
:04001c005802000086
:020000040000fa
:040020005802000082
:020000040000fa
:04002400580200007e
:020000040000fa
:04002800580200007a
:020000040000fa
:04002c005802000076
:020000040000fa
:040030005802000072
:020000040000fa
:04003400580200006e
:020000040000fa
:04003800580200006a
:020000040000fa
:04003c005802000066
:020000040000fa
:040040005802000062
:020000040000fa
:0400440004020000b2
:020000040000fa
:04004800580200005a
:020000040000fa
:04004c005802000056
:020000040000fa
:040050005802000052
:020000040000fa
:04005400580200004e
:020000040000fa
:04005800580200004a
:020000040000fa
:04005c005802000046
:020000040000fa
:040060005802000042
:020000040000fa
:04006400580200003e
:020000040000fa
:04006800580200003a
:020000040000fa
:04006c005802000036
:020000040000fa
:040070005802000032
:020000040000fa
:04007400580200002e
:020000040000fa
:04007800580200002a
:020000040000fa
:04007c005802000026
:020000040000fa
:040080005802000022
:020000040000fa
:04008400580200001e
:020000040000fa
:04008800580200001a
:020000040000fa
:04008c005802000016
:020000040000fa
:040090005802000012
:020000040000fa
:04009400580200000e
:020000040000fa
:04009800580200000a
:020000040000fa
:04009c005802000006
:020000040000fa
:0400a0005802000002
:020000040000fa
:0400a40058020000fe
:020000040000fa
:0400a80058020000fa
:020000040000fa
:0400ac0058020000f6
:020000040000fa
:0400b00058020000f2
:020000040000fa
:0400b40058020000ee
:020000040000fa
:0400b80058020000ea
:020000040000fa
:0400bc0058020000e6
:020000040000fa
:0400c00058020000e2
:020000040000fa
:0400c40058020000de
:020000040000fa
:0400c80058020000da
:020000040000fa
:0400cc0058020000d6
:020000040000fa
:0400d00058020000d2
:020000040000fa
:0400d40058020000ce
:020000040000fa
:0400d80058020000ca
:020000040000fa
:0400dc0058020000c6
:020000040000fa
:0400e00058020000c2
:020000040000fa
:0400e40058020000be
:020000040000fa
:0400e80058020000ba
:020000040000fa
:0400ec0058020000b6
:020000040000fa
:0400f00058020000b2
:020000040000fa
:0400f40058020000ae
:020000040000fa
:0400f80058020000aa
:020000040000fa
:0400fc0058020000a6
:020000040000fa
:0401000058020000a1
:020000040000fa
:04010400580200009d
:020000040000fa
:040108005802000099
:020000040000fa
:04010c005802000095
:020000040000fa
:040110005802000091
:020000040000fa
:04011400580200008d
:020000040000fa
:040118005802000089
:020000040000fa
:04011c005802000085
:020000040000fa
:040120005802000081
:020000040000fa
:04012400580200007d
:020000040000fa
:040128005802000079
:020000040000fa
:04012c005802000075
:020000040000fa
:040130005802000071
:020000040000fa
:04013400580200006d
:020000040000fa
:040138005802000069
:020000040000fa
:04013c005802000065
:020000040000fa
:040140005802000061
:020000040000fa
:04014400580200005d
:020000040000fa
:040148005802000059
:020000040000fa
:04014c005802000055
:020000040000fa
:040150005802000051
:020000040000fa
:04015400580200004d
:020000040000fa
:040158005802000049
:020000040000fa
:04015c005802000045
:020000040000fa
:040160005802000041
:020000040000fa
:04016400580200003d
:020000040000fa
:040168005802000039
:020000040000fa
:04016c005802000035
:020000040000fa
:040170005802000031
:020000040000fa
:04017400580200002d
:020000040000fa
:040178005802000029
:020000040000fa
:04017c005802000025
:020000040000fa
:040180005802000021
:020000040000fa
:04018400580200001d
:020000040000fa
:040188005802000019
:020000040000fa
:04018c005802000015
:020000040000fa
:040190005802000011
:020000040000fa
:04019400580200000d
:020000040000fa
:040198005802000009
:020000040000fa
:04019c005802000005
:020000040000fa
:0401a0005802000001
:020000040000fa
:0401a40058020000fd
:020000040000fa
:0401a80058020000f9
:020000040000fa
:0401ac0058020000f5
:020000040000fa
:0401b00058020000f1
:020000040000fa
:0401b40058020000ed
:020000040000fa
:0401b80058020000e9
:020000040000fa
:0401bc0058020000e5
:020000040000fa
:0401c00058020000e1
:020000040000fa
:0401c40058020000dd
:020000040000fa
:0401c80058020000d9
:020000040000fa
:0401cc0058020000d5
:020000040000fa
:0401d00058020000d1
:020000040000fa
:0401d40058020000cd
:020000040000fa
:0401d80058020000c9
:020000040000fa
:0401dc0058020000c5
:020000040000fa
:0401e00058020000c1
:020000040000fa
:0401e40058020000bd
:020000040000fa
:0401e80058020000b9
:020000040000fa
:0401ec0058020000b5
:020000040000fa
:0401f00058020000b1
:020000040000fa
:0401f40058020000ad
:020000040000fa
:0401f80058020000a9
:020000040000fa
:0401fc0058020000a5
:020000040000fa
:100200000f8120000eff27000e0188000000000073
:10021000000020000000e000020032000001200089
:100220002002880014000700a30007000000e0007f
:1002300003003a00e05320000100200002003700d4
:100240000000200001002000810f7000010032003a
:1002500014000700000020000000e000020032004f
:1002600000000200000000000e0302000000000079
:100270000040da000000fe004440a90020002000f9
:100280000000e00003003200100020009001880010
:100290004440a800000006008a1f78008b1f7800e9
:1002a00000000600a1028800800478000000eb0036
:1002b0001f003700e284440054a0b4009905ba003e
:1002c000e284440054a0b4009906ba00e2844400d9
:1002d00054a0b4000006eb00476fde00fd07b2003b
:1002e000ae018800636ce10003003a00eaff0700fa
:1002f0000000eb000e003700606ce10008003a00df
:10030000004deb000a05e800020039003420ec0043
:100310000af0a0008b05e900f9ff3e000400370059
:100320006168e100010032000086eb000b0007006d
:1003300019c7ba001905ba000e04e00003003a001c
:100340000a00e000dbff3a0000000600fe07b200f2
:10035000ae0288008a047800f5ff37000cd0a300b5
:10036000e20f4d001c00390089027800354dba00bb
:100370000a05e800020039003420ec000af0a00071
:100380008b05e9000f003200254dba000a05e80090
:10039000020039003420ec000af0a0008b05e900cf
:1003a000080032000c00e0000600320015cdba0053
:1003b0000a05e800020039003420ec000af0a00031
:1003c0008b05e9008984e80054a0b4000b00e0002c
:1003d000e2ff3a00000006009902ba00055d7800cd
:1003e0008b05e900f7ff3200c82ade00055d7800c2
:1003f0008b05e900f3ff32000c00e000f1ff320052
:1004000019ddba00eeff3700809fbe003200f80011
:100410003400f80010002000a00188001000200027
:10042000900188000000fa0000c8bf000004e0004e
:100430000a003200304080000000e80030408800b0
:100440003140800010032000808f500004003600ef
:1004500010c0b30001e8b700010037000628ef0024
:1004600002c8bf000004e0000a00320040408000e3
:100470000000e80040408800414080001003200058
:10048000808f50000400360010c0b30003e8b700ae
:10049000010037000828ef0088e0a9000080fa007a
:1004a0003400f9003200f9004f00be0000400600a1
:0c04b0000040da000000fe000000050023
:020000040000fa
:1004bc000000fa0050408000e10f50002f00320085
:1004cc00e10f500003003900e20f500046003200eb
:1004dc004d003700013580000004200000806000d2
:1004ec000000e00006003a00c080200011c0b300fc
:1004fc000148780010c0b30000e8b70017003700bf
:10050c000135800000002200008060000000e00047
:10051c0006003a00d080200011c0b30001487800da
:10052c0010c0b30000e8b7000c00370001358000a4
:10053c0000082000008060000000e00006003a0087
:10054c00e080200011c0b3000148780010c0b30057
:10055c0000e8b700010037000068ef0001c8bf00d9
:10056c000004e000250032000168ef000068ef0095
:10057c001000200050408800230037000135800017
:10058c0000042000008060000000e0000d0032003c
:10059c000135800000002200008060000000e000b7
:1005ac000800320001358000000820000080600047
:1005bc000000e0000300320010c0b30002e8b700f6
:1005cc00010037000268ef0003c8bf000004e00020
:1005dc000c0032000368ef000268ef0020002000de
:1005ec00504088000800370010c0b30004e8b70082
:1005fc000a28ef0000000000030037000000000094
:10060c0001003700000000000080fa000000060026
:10061c000000fa000f01070098e0a8000300370063
:10062c00000000000100370000000000a0ff0700e0
:10063c0004c8bf000004e000f9ff32000468ef00ba
:10064c00c080200010407800e14f500010003a00ac
:10065c00c08020008040eb000148780030338000df
:10066c004200de00614060000004a20061406000b6
:10067c000080fb00610060004200dd00313380002f
:10068c000120a1000100700030338800e7ff370023
:10069c00d080200010407800e14f500010003a004c
:1006ac00d08020008040eb0001487800303380007f
:1006bc004300de00614060000004a2006140600065
:1006cc000080fb00610060004300dd0031338000de
:1006dc000130a1000100700030338800d3ff3700d7
:1006ec00e080200010407800e14f5000ceff3a002f
:1006fc00e08020008040eb0001487800303380001f
:10070c004400de00614060000004a2006140600013
:10071c000080fb00610060004400dd00313380008c
:10072c000140a1000100700030338800bfff37008a
:10073c000000fa006626ef007a26ef008e26ef0006
:10074c00a226ef00b626ef00ca26ef00de26ef0049
:10075c000080eb00103388000080eb00b033880081
:10076c000080eb00503488000080eb00f0348800ef
:10077c000080eb00903588000080eb00303688005c
:10078c000080eb00d03688006a26ef007e26ef0052
:10079c009226ef00a626ef00ba26ef00ce26ef0039
:1007ac00e226ef009ec6a8009ee6a8009fa6a80021
:1007bc006246a9006266a9006286a9000108800051
:1007cc00f00b200000816000600420007105200007
:1007dc000310200080497800814978008249780014
:1007ec00213f8000f00f2800808060000030200046
:1007fc0001007000203f8800a13d800000fc2f000c
:10080c0000806000a000b300a03d880000088000bc
:10081c00000178000260a000600420007105200037
:10082c0003102000804978008149780082497800c3
:10083c000080fa00000006000000fa009421ef008e
:10084c009421a900a10c8000f0fc2f000080600016
:10085c00a00c88000080fa00000006000800fa00d6
:10086c00200798003107980095e1a90000012000ad
:10087c00900c88009021ef008860a90095e1a800f9
:10088c006000b800008fbe000b00370000000000b5
:10089c0040048000680060000000e000fcff3200b3
:1008ac008860a9009021ef001200200003002000b6
:1008bc001e0f41005e9749002e009000be00900074
:1008cc001e01be00800f5100818f5900efff3900cf
:1008dc000080fa00000006000400fa0010079800df
:1008ec0095e1a90000e82300900c88009021ef000e
:1008fc008860a90095e1a8000000eb00000f7800cb
:10090c000800370000000000400480006800600010
:10091c000000e000fcff32008860a9009021ef008d
:10092c001e0fe8001e0090009e007800808f500083
:10093c00f4ff350095e1a9000080fa0000000600e4
:10094c000000fa009823ef009863a800001a20001a
:10095c00001d880099e3a8009b43a8000080fa00c2
:10096c00000006000200fa00004f780000000000b2
:10097c00d11c800000202000008060000000e000fe
:10098c00fbff3a001e80fb00e01c88000080fa0090
:10099c00000006000200fa00000f78000400370087
:1009ac001e00780010407800eeff07001e0fe800d4
:1009bc001e007800104078000004e000f8ff3a00b8
:1009cc000080fa00000006000400fa00000f780016
:1009dc0011079800040037001e00780010407800c2
:1009ec00e0ff07001e0fe8001e00900000f0a700bb
:1009fc000000ea000000ea004f00de000040780032
:100a0c009e0090008100e900110798000004e000ae
:100a1c00f1ff3a000080fa00000006000000fa0026
:100a2c00a021ef00a021a900010d8000f0fc2f00f7
:100a3c00008060000050a000000d88009621ef009f
:100a4c00803e2000e00c8800a1e1a8000080fa00a4
:100a5c00000006000000fa0035ff0700b8ff070091
:100a6c0075ff0700edff07000080fa00000006008c
:020000040000fa
:100a7c000c080000040000008000000000080000ca
:0c0a8c000c0000008000000000000000d2
:020000040000fa
:020000040015e5
:047e0000ffffff0081
:020000040000fa
:020000040015e5
:047e2000ff1f000040
:020000040000fa
:020000040015e5
:047e300063ffff00ed
:020000040000fa
:020000040015e5
:047e3800b5ffff0093
:020000040000fa
:020000040015e5
:047e40009fffff00a1
:020000040000fa
:020000040015e5
:047e4800ffffff0039
:020000040000fa
:020000040015e5
:047e5000deffff0052
:020000040000fa
:020000040015e5
:047e5800ffffff0029
:00000001FF
