:020000040000fa
:080000000001040000000000f3
:020000040000fa
:040008006002000092
:020000040000fa
:04000c00600200008e
:020000040000fa
:04001000600200008a
:020000040000fa
:040014006002000086
:020000040000fa
:040018006002000082
:020000040000fa
:04001c00600200007e
:020000040000fa
:04002000600200007a
:020000040000fa
:040024006002000076
:020000040000fa
:040028006002000072
:020000040000fa
:04002c00600200006e
:020000040000fa
:04003000600200006a
:020000040000fa
:040034003c0200008a
:020000040000fa
:040038006002000062
:020000040000fa
:04003c00600200005e
:020000040000fa
:04004000600200005a
:020000040000fa
:040044006002000056
:020000040000fa
:040048006002000052
:020000040000fa
:04004c00600200004e
:020000040000fa
:04005000600200004a
:020000040000fa
:0400540004020000a2
:020000040000fa
:040058006002000042
:020000040000fa
:04005c00600200003e
:020000040000fa
:04006000600200003a
:020000040000fa
:040064006002000036
:020000040000fa
:040068006002000032
:020000040000fa
:04006c00600200002e
:020000040000fa
:04007000600200002a
:020000040000fa
:040074006002000026
:020000040000fa
:040078006002000022
:020000040000fa
:04007c00600200001e
:020000040000fa
:04008000600200001a
:020000040000fa
:040084006002000016
:020000040000fa
:040088006002000012
:020000040000fa
:04008c00600200000e
:020000040000fa
:04009000600200000a
:020000040000fa
:040094006002000006
:020000040000fa
:040098006002000002
:020000040000fa
:04009c0060020000fe
:020000040000fa
:0400a00060020000fa
:020000040000fa
:0400a40060020000f6
:020000040000fa
:0400a80060020000f2
:020000040000fa
:0400ac0060020000ee
:020000040000fa
:0400b00060020000ea
:020000040000fa
:0400b40060020000e6
:020000040000fa
:0400b80060020000e2
:020000040000fa
:0400bc0060020000de
:020000040000fa
:0400c00060020000da
:020000040000fa
:0400c40060020000d6
:020000040000fa
:0400c80060020000d2
:020000040000fa
:0400cc0060020000ce
:020000040000fa
:0400d00060020000ca
:020000040000fa
:0400d40060020000c6
:020000040000fa
:0400d80060020000c2
:020000040000fa
:0400dc0060020000be
:020000040000fa
:0400e00060020000ba
:020000040000fa
:0400e40060020000b6
:020000040000fa
:0400e80060020000b2
:020000040000fa
:0400ec0060020000ae
:020000040000fa
:0400f00060020000aa
:020000040000fa
:0400f40060020000a6
:020000040000fa
:0400f80060020000a2
:020000040000fa
:0400fc00600200009e
:020000040000fa
:040100006002000099
:020000040000fa
:040104006002000095
:020000040000fa
:040108006002000091
:020000040000fa
:04010c00600200008d
:020000040000fa
:040110006002000089
:020000040000fa
:040114006002000085
:020000040000fa
:040118006002000081
:020000040000fa
:04011c00600200007d
:020000040000fa
:040120006002000079
:020000040000fa
:040124006002000075
:020000040000fa
:040128006002000071
:020000040000fa
:04012c00600200006d
:020000040000fa
:040130006002000069
:020000040000fa
:040134006002000065
:020000040000fa
:040138006002000061
:020000040000fa
:04013c00600200005d
:020000040000fa
:040140006002000059
:020000040000fa
:040144006002000055
:020000040000fa
:040148006002000051
:020000040000fa
:04014c00600200004d
:020000040000fa
:040150006002000049
:020000040000fa
:040154006002000045
:020000040000fa
:040158006002000041
:020000040000fa
:04015c00600200003d
:020000040000fa
:040160006002000039
:020000040000fa
:040164006002000035
:020000040000fa
:040168006002000031
:020000040000fa
:04016c00600200002d
:020000040000fa
:040170006002000029
:020000040000fa
:040174006002000025
:020000040000fa
:040178006002000021
:020000040000fa
:04017c00600200001d
:020000040000fa
:040180006002000019
:020000040000fa
:040184006002000015
:020000040000fa
:040188006002000011
:020000040000fa
:04018c00600200000d
:020000040000fa
:040190006002000009
:020000040000fa
:040194006002000005
:020000040000fa
:040198006002000001
:020000040000fa
:04019c0060020000fd
:020000040000fa
:0401a00060020000f9
:020000040000fa
:0401a40060020000f5
:020000040000fa
:0401a80060020000f1
:020000040000fa
:0401ac0060020000ed
:020000040000fa
:0401b00060020000e9
:020000040000fa
:0401b40060020000e5
:020000040000fa
:0401b80060020000e1
:020000040000fa
:0401bc0060020000dd
:020000040000fa
:0401c00060020000d9
:020000040000fa
:0401c40060020000d5
:020000040000fa
:0401c80060020000d1
:020000040000fa
:0401cc0060020000cd
:020000040000fa
:0401d00060020000c9
:020000040000fa
:0401d40060020000c5
:020000040000fa
:0401d80060020000c1
:020000040000fa
:0401dc0060020000bd
:020000040000fa
:0401e00060020000b9
:020000040000fa
:0401e40060020000b5
:020000040000fa
:0401e80060020000b1
:020000040000fa
:0401ec0060020000ad
:020000040000fa
:0401f00060020000a9
:020000040000fa
:0401f40060020000a5
:020000040000fa
:0401f80060020000a1
:020000040000fa
:0401fc00600200009d
:020000040000fa
:100200002f8220000eff27000e0188000000000052
:10021000000020000000e000020032000001200089
:100220002002880014000700a70007000000e0007b
:1002300003003a0040342000010020000200370093
:100240000000200001002000810f7000010032003a
:1002500014000700000020000000e000020032004f
:1002600000000200000000005e0302000000000029
:100270000040da000000fe004440a90020002000f9
:100280000000e00003003200100020009001880010
:100290004440a800000006008a1f78008b1f7800e9
:1002a00000000600a1028800800478000000eb0036
:1002b0001f003700e284440054a0b4009905ba003e
:1002c000e284440054a0b4009906ba00e2844400d9
:1002d00054a0b4000006eb00476fde00fd07b2003b
:1002e000ae018800636ce10003003a00eaff0700fa
:1002f0000000eb000e003700606ce10008003a00df
:10030000004deb000a05e800020039003420ec0043
:100310000af0a0008b05e900f9ff3e000400370059
:100320006168e100010032000086eb000b0007006d
:1003300019c7ba001905ba000e04e00003003a001c
:100340000a00e000dbff3a0000000600fe07b200f2
:10035000ae0288008a047800f5ff37000cd0a300b5
:10036000e20f4d001c00390089027800354dba00bb
:100370000a05e800020039003420ec000af0a00071
:100380008b05e9000f003200254dba000a05e80090
:10039000020039003420ec000af0a0008b05e900cf
:1003a000080032000c00e0000600320015cdba0053
:1003b0000a05e800020039003420ec000af0a00031
:1003c0008b05e9008984e80054a0b4000b00e0002c
:1003d000e2ff3a00000006009902ba00055d7800cd
:1003e0008b05e900f7ff3200c82ade00055d7800c2
:1003f0008b05e900f3ff32000c00e000f1ff320052
:1004000019ddba00eeff3700809fbe00821f780022
:100410003200f8003400f80010002000a00188002d
:1004200010002000900188000000fa0095e1a8006b
:100430009021ef0000c8bf000080fb00f11c80008d
:1004400081407800228020000000410001487800af
:1004500000c8bf000040e80000e8b7008960a900bc
:100460000080fa003400f9003200f9004f017800f2
:100470004f00be0000400600801f78003200f800e8
:100480003400f80010002000a001880010002000b7
:10049000900188000000fa0095e1a90010c0b300a7
:1004a00001e8b7000068ef008860a9000080fa004a
:1004b0003400f9003200f9004f00780000400600d7
:0c04c0000040da000000fe000000050013
:020000040000fa
:1004cc000000fa0090012000001d880000002800a8
:1004dc00c01c88009a23ef009b43a8009b83a800b4
:1004ec000080fa00000006000200fa00004f7800bd
:1004fc0000000000d11c8000002020000080600063
:10050c000000e000fbff3a001e80fb00e01c8800ae
:10051c000080fa00000006000600fa000e81e800d8
:10052c000009780064004700010878000000eb0027
:10053c00000f78000a0037000e80e80010007800e9
:10054c0010407800e8ff07000e80e80010007800eb
:10055c008000e8000e80e800010878001e0fe8001b
:10056c0064004700100078009e0f5000f2ff3e0020
:10057c000080fa00000006000000fa006206a900e4
:10058c00020007000080fa00000006000000fa00dc
:10059c0001088000f00b2000008160006004200046
:1005ac0071052000031020008049780081497800f3
:1005bc0082497800a13d800000fc2f000080600083
:1005cc00a000b300a03d8800213f8000f00f280060
:1005dc00808060000030200001007000203f880007
:1005ec0000088000000178000260a0006004200078
:1005fc0071052000031020008049780081497800a3
:10060c00824978000080fa00000006000000fa0021
:10061c0095a1a90094c1a9009421a900a10c800066
:10062c00f0cf2f0000806000a00c880094a1a900de
:10063c009481a9009021ef0000e82300900c880021
:10064c000080fa00000006000000fa000700070016
:10065c00010037000000000001c8bf000004e000ea
:10066c00fcff32006606a800fbff37000000fa0012
:0c067c00150007000080fa0000000600d6
:020000040000fa
:1006880002080000200000008000000000080000b0
:0c069800020000008000000000000000d4
:020000040000fa
:1006a4000000fa00b6ff0700daff070086ff070024
:1006b4000080fa00000006000000fa00f8ff0700be
:1006c400e3ff07000000eb000080fa0000000600d2
:1006d4000000fa009960a8009860a8000080fa0061
:0406e400000006000c
:020000040000fa
:020000040015e5
:047e0000ffffff0081
:020000040000fa
:020000040015e5
:047e2000ff1f000040
:020000040000fa
:020000040015e5
:047e3000faffff0056
:020000040000fa
:020000040015e5
:047e3800bdffff008b
:020000040000fa
:020000040015e5
:047e40009fffff00a1
:020000040000fa
:020000040015e5
:047e4800ffffff0039
:020000040000fa
:020000040015e5
:047e5000deffff0052
:020000040000fa
:020000040015e5
:047e5800ffffff0029
:00000001FF
