:020000040000fa
:080000000001040000000000f3
:020000040000fa
:0400080004020000ee
:020000040000fa
:04000c0004020000ea
:020000040000fa
:0400100004020000e6
:020000040000fa
:0400140004020000e2
:020000040000fa
:0400180004020000de
:020000040000fa
:04001c0004020000da
:020000040000fa
:0400200004020000d6
:020000040000fa
:0400240004020000d2
:020000040000fa
:0400280004020000ce
:020000040000fa
:04002c0004020000ca
:020000040000fa
:0400300004020000c6
:020000040000fa
:0400340004020000c2
:020000040000fa
:0400380004020000be
:020000040000fa
:04003c0004020000ba
:020000040000fa
:0400400004020000b6
:020000040000fa
:0400440004020000b2
:020000040000fa
:0400480004020000ae
:020000040000fa
:04004c0004020000aa
:020000040000fa
:0400500004020000a6
:020000040000fa
:0400540004020000a2
:020000040000fa
:04005800040200009e
:020000040000fa
:04005c00040200009a
:020000040000fa
:040060000402000096
:020000040000fa
:040064000402000092
:020000040000fa
:04006800040200008e
:020000040000fa
:04006c00040200008a
:020000040000fa
:040070000402000086
:020000040000fa
:040074000402000082
:020000040000fa
:04007800040200007e
:020000040000fa
:04007c00040200007a
:020000040000fa
:040080000402000076
:020000040000fa
:040084000402000072
:020000040000fa
:04008800040200006e
:020000040000fa
:04008c00040200006a
:020000040000fa
:040090000402000066
:020000040000fa
:040094000402000062
:020000040000fa
:04009800040200005e
:020000040000fa
:04009c00040200005a
:020000040000fa
:0400a0000402000056
:020000040000fa
:0400a4000402000052
:020000040000fa
:0400a800040200004e
:020000040000fa
:0400ac00040200004a
:020000040000fa
:0400b0000402000046
:020000040000fa
:0400b4000402000042
:020000040000fa
:0400b800040200003e
:020000040000fa
:0400bc00040200003a
:020000040000fa
:0400c0000402000036
:020000040000fa
:0400c4000402000032
:020000040000fa
:0400c800040200002e
:020000040000fa
:0400cc00040200002a
:020000040000fa
:0400d0000402000026
:020000040000fa
:0400d4000402000022
:020000040000fa
:0400d800040200001e
:020000040000fa
:0400dc00040200001a
:020000040000fa
:0400e0000402000016
:020000040000fa
:0400e4000402000012
:020000040000fa
:0400e800040200000e
:020000040000fa
:0400ec00040200000a
:020000040000fa
:0400f0000402000006
:020000040000fa
:0400f4000402000002
:020000040000fa
:0400f80004020000fe
:020000040000fa
:0400fc0004020000fa
:020000040000fa
:0401000004020000f5
:020000040000fa
:0401040004020000f1
:020000040000fa
:0401080004020000ed
:020000040000fa
:04010c0004020000e9
:020000040000fa
:0401100004020000e5
:020000040000fa
:0401140004020000e1
:020000040000fa
:0401180004020000dd
:020000040000fa
:04011c0004020000d9
:020000040000fa
:0401200004020000d5
:020000040000fa
:0401240004020000d1
:020000040000fa
:0401280004020000cd
:020000040000fa
:04012c0004020000c9
:020000040000fa
:0401300004020000c5
:020000040000fa
:0401340004020000c1
:020000040000fa
:0401380004020000bd
:020000040000fa
:04013c0004020000b9
:020000040000fa
:0401400004020000b5
:020000040000fa
:0401440004020000b1
:020000040000fa
:0401480004020000ad
:020000040000fa
:04014c0004020000a9
:020000040000fa
:0401500004020000a5
:020000040000fa
:0401540004020000a1
:020000040000fa
:04015800040200009d
:020000040000fa
:04015c000402000099
:020000040000fa
:040160000402000095
:020000040000fa
:040164000402000091
:020000040000fa
:04016800040200008d
:020000040000fa
:04016c000402000089
:020000040000fa
:040170000402000085
:020000040000fa
:040174000402000081
:020000040000fa
:04017800040200007d
:020000040000fa
:04017c000402000079
:020000040000fa
:040180000402000075
:020000040000fa
:040184000402000071
:020000040000fa
:04018800040200006d
:020000040000fa
:04018c000402000069
:020000040000fa
:040190000402000065
:020000040000fa
:040194000402000061
:020000040000fa
:04019800040200005d
:020000040000fa
:04019c000402000059
:020000040000fa
:0401a0000402000055
:020000040000fa
:0401a4000402000051
:020000040000fa
:0401a800040200004d
:020000040000fa
:0401ac000402000049
:020000040000fa
:0401b0000402000045
:020000040000fa
:0401b4000402000041
:020000040000fa
:0401b800040200003d
:020000040000fa
:0401bc000402000039
:020000040000fa
:0401c0000402000035
:020000040000fa
:0401c4000402000031
:020000040000fa
:0401c800040200002d
:020000040000fa
:0401cc000402000029
:020000040000fa
:0401d0000402000025
:020000040000fa
:0401d4000402000021
:020000040000fa
:0401d800040200001d
:020000040000fa
:0401dc000402000019
:020000040000fa
:0401e0000402000015
:020000040000fa
:0401e4000402000011
:020000040000fa
:0401e800040200000d
:020000040000fa
:0401ec000402000009
:020000040000fa
:0401f0000402000005
:020000040000fa
:0401f4000402000001
:020000040000fa
:0401f80004020000fd
:020000040000fa
:0401fc0004020000f9
:020000040000fa
:100200000f8020000eff27000e0188000000000074
:10021000000020000000e000020032000001200089
:100220002002880014000700790007000000e000a9
:1002300003003a0000002000010020000200370007
:100240000000200001002000810f7000010032003a
:1002500014000700000020000000e000020032004f
:100260000000020000000000e403020000000000a3
:100270000040da000000fe004440a9008001200098
:100280000000e00003003200002020009001880000
:100290004440a800000006008a1f78008b1f7800e9
:1002a00000000600a1028800800478000000eb0036
:1002b0001f003700e284440054a0b4009905ba003e
:1002c000e284440054a0b4009906ba00e2844400d9
:1002d00054a0b4000006eb00476fde00fd07b2003b
:1002e000ae018800636ce10003003a00eaff0700fa
:1002f0000000eb000e003700606ce10008003a00df
:10030000004deb000a05e800020039003420ec0043
:100310000af0a0008b05e900f9ff3e000400370059
:100320006168e100010032000086eb000b0007006d
:1003300019c7ba001905ba000e04e00003003a001c
:100340000a00e000dbff3a0000000600fe07b200f2
:10035000ae0288008a047800f5ff37000cd0a300b5
:10036000e20f4d001c00390089027800354dba00bb
:100370000a05e800020039003420ec000af0a00071
:100380008b05e9000f003200254dba000a05e80090
:10039000020039003420ec000af0a0008b05e900cf
:1003a000080032000c00e0000600320015cdba0053
:1003b0000a05e800020039003420ec000af0a00031
:1003c0008b05e9008984e80054a0b4000b00e0002c
:1003d000e2ff3a00000006009902ba00055d7800cd
:1003e0008b05e900f7ff3200c82ade00055d7800c2
:1003f0008b05e900f3ff32000c00e000f1ff320052
:1004000019ddba00eeff37000040da000000fe0000
:0404100000000500e3
:020000040000fa
:10041400574500004c4300004f4d000045200000ac
:10042400544f000020500000524500004349000092
:10043400534900004f4e00000d0a00000000000068
:020000040000fa
:100444000000fa000300370000000000010037003c
:1004540000000000013580000004200000806000de
:1004640000f0a7000000ea000000e9004f00de00f1
:100474008040780002358000000022000000610006
:1004840000f0a7000000ea000000e9004f00de00d1
:100494000040780000c070008080fb0002358000be
:1004a400000820000000610000f0a7000000ea003e
:1004b4000000e9004f00de00010070000000e000d1
:1004c400e1ff320040062000a5000700013580004e
:1004d400000420000080600000f0a7000000ea0093
:1004e4000000ea004f00de00804078000235800002
:1004f400000022000000610000f0a7000000ea00f4
:100504000000ea004f00de000040780000c07000e8
:100514008080fb000235800000082000000061009c
:1005240000f0a7000000ea000000ea004f00de002f
:10053400010070000000e000c5ff32006606a8005c
:10054400a02028006a000700c2ff37000000fa005c
:100554006626ef007a26ef008e26ef00a226ef0033
:10056400b626ef00ca26ef00de26ef000080eb007f
:10057400103388000080eb00b03388000080eb006b
:10058400503488000080eb00f03488000080eb00d9
:10059400903588000080eb00303688000080eb0046
:1005a400d03688006a26ef007e26ef009226ef0000
:1005b400a626ef00ba26ef00ce26ef00e226ef00d3
:1005c4006206a900020007000080fa00000006008d
:1005d4000000fa0001088000f00b20000081600098
:1005e4006004200071052000031020008049780079
:1005f4008149780082497800a13d800000fc2f00e9
:1006040000806000a000b300a03d8800213f80006e
:10061400f00f28008080600000302000010070008e
:10062400203f880000088000000178000260a000dc
:100634006004200071052000031020008049780028
:1006440081497800824978000080fa0000000600a1
:100654000000fa0090012000001d8800000028001e
:10066400c01c88009a23ef009b43a8009b83a8002a
:100674000080fa00000006000200fa00004f780033
:1006840000000000d11c80000020200000806000d9
:100694000000e000fbff3a001e80fb00e01c880025
:1006a4000080fa00000006000600fa001007980017
:1006b400210798000000eb00000f780007003700c6
:1006c4001e00900010407800ebff07001e00900011
:1006d4000000e800100798001e0fe8002e009000ac
:1006e4009e0f5000f6ff3e000080fa000000060056
:1006f4000200fa00000f7800040037001e007800a2
:1007040010407800dcff07001e0fe8001e00780090
:10071400104078000004e000f8ff3a000080fa007e
:10072400000006000000fa0095a1a90094c1a900e8
:100734009421a900a10c8000f0cf2f00008060005c
:10074400a00c880094a1a9009481a9009021ef0035
:1007540000fa2000900c88000080fa0000000600d7
:100764000400fa001007980095e1a8000000eb00cf
:10077400000f7800070037000000000040048000ec
:10078400680060000000e000fcff32008860a900ff
:100794001e0fe8001e0090009e0f5000f6ff3e0062
:1007a40095e1a9000080fa00000006000000fa00ac
:1007b40066ff0700dbff0700a5ff07000080fa00c3
:1007c400000006000000fa00f8ff07001cff070005
:0c07d4000000eb000080fa0000000600ae
:020000040000fa
:020000040015e5
:047e0000ffffff0081
:020000040000fa
:020000040015e5
:047e2000ff1f000040
:020000040000fa
:020000040015e5
:047e3000faffff0056
:020000040000fa
:020000040015e5
:047e3800bdffff008b
:020000040000fa
:020000040015e5
:047e40009fffff00a1
:020000040000fa
:020000040015e5
:047e4800ffffff0039
:020000040000fa
:020000040015e5
:047e5000deffff0052
:020000040000fa
:020000040015e5
:047e5800ffffff0029
:00000001FF
