:020000040000fa
:080000000001040000000000f3
:020000040000fa
:04000800a60200004c
:020000040000fa
:04000c00a602000048
:020000040000fa
:04001000a602000044
:020000040000fa
:04001400a602000040
:020000040000fa
:04001800a60200003c
:020000040000fa
:04001c00a602000038
:020000040000fa
:04002000a602000034
:020000040000fa
:04002400a602000030
:020000040000fa
:04002800a60200002c
:020000040000fa
:04002c00a602000028
:020000040000fa
:04003000a602000024
:020000040000fa
:040034005c0200006a
:020000040000fa
:04003800a60200001c
:020000040000fa
:04003c00a602000018
:020000040000fa
:04004000a602000014
:020000040000fa
:04004400a602000010
:020000040000fa
:04004800a60200000c
:020000040000fa
:04004c00a602000008
:020000040000fa
:04005000a602000004
:020000040000fa
:0400540004020000a2
:020000040000fa
:04005800a6020000fc
:020000040000fa
:04005c00a6020000f8
:020000040000fa
:04006000a6020000f4
:020000040000fa
:04006400a6020000f0
:020000040000fa
:04006800a6020000ec
:020000040000fa
:04006c00a6020000e8
:020000040000fa
:04007000a6020000e4
:020000040000fa
:04007400a6020000e0
:020000040000fa
:04007800a6020000dc
:020000040000fa
:04007c00a6020000d8
:020000040000fa
:04008000a6020000d4
:020000040000fa
:04008400a6020000d0
:020000040000fa
:04008800a6020000cc
:020000040000fa
:04008c00a6020000c8
:020000040000fa
:04009000a6020000c4
:020000040000fa
:04009400a6020000c0
:020000040000fa
:04009800a6020000bc
:020000040000fa
:04009c00a6020000b8
:020000040000fa
:0400a000a6020000b4
:020000040000fa
:0400a400a6020000b0
:020000040000fa
:0400a800a6020000ac
:020000040000fa
:0400ac00a6020000a8
:020000040000fa
:0400b000a6020000a4
:020000040000fa
:0400b400a6020000a0
:020000040000fa
:0400b800a60200009c
:020000040000fa
:0400bc00a602000098
:020000040000fa
:0400c000a602000094
:020000040000fa
:0400c400a602000090
:020000040000fa
:0400c800a60200008c
:020000040000fa
:0400cc00a602000088
:020000040000fa
:0400d000a602000084
:020000040000fa
:0400d400a602000080
:020000040000fa
:0400d800a60200007c
:020000040000fa
:0400dc00a602000078
:020000040000fa
:0400e000a602000074
:020000040000fa
:0400e400a602000070
:020000040000fa
:0400e800a60200006c
:020000040000fa
:0400ec00a602000068
:020000040000fa
:0400f000a602000064
:020000040000fa
:0400f400a602000060
:020000040000fa
:0400f800a60200005c
:020000040000fa
:0400fc00a602000058
:020000040000fa
:04010000a602000053
:020000040000fa
:04010400a60200004f
:020000040000fa
:04010800a60200004b
:020000040000fa
:04010c00a602000047
:020000040000fa
:04011000a602000043
:020000040000fa
:04011400a60200003f
:020000040000fa
:04011800a60200003b
:020000040000fa
:04011c00a602000037
:020000040000fa
:04012000a602000033
:020000040000fa
:04012400a60200002f
:020000040000fa
:04012800a60200002b
:020000040000fa
:04012c00a602000027
:020000040000fa
:04013000a602000023
:020000040000fa
:04013400a60200001f
:020000040000fa
:04013800a60200001b
:020000040000fa
:04013c00a602000017
:020000040000fa
:04014000a602000013
:020000040000fa
:04014400a60200000f
:020000040000fa
:04014800a60200000b
:020000040000fa
:04014c00a602000007
:020000040000fa
:04015000a602000003
:020000040000fa
:04015400a6020000ff
:020000040000fa
:04015800a6020000fb
:020000040000fa
:04015c00a6020000f7
:020000040000fa
:04016000a6020000f3
:020000040000fa
:04016400a6020000ef
:020000040000fa
:04016800a6020000eb
:020000040000fa
:04016c00a6020000e7
:020000040000fa
:04017000a6020000e3
:020000040000fa
:04017400a6020000df
:020000040000fa
:04017800a6020000db
:020000040000fa
:04017c00a6020000d7
:020000040000fa
:04018000a6020000d3
:020000040000fa
:04018400a6020000cf
:020000040000fa
:04018800a6020000cb
:020000040000fa
:04018c00a6020000c7
:020000040000fa
:04019000a6020000c3
:020000040000fa
:04019400a6020000bf
:020000040000fa
:04019800a6020000bb
:020000040000fa
:04019c00a6020000b7
:020000040000fa
:0401a000a6020000b3
:020000040000fa
:0401a400a6020000af
:020000040000fa
:0401a800a6020000ab
:020000040000fa
:0401ac00a6020000a7
:020000040000fa
:0401b000a6020000a3
:020000040000fa
:0401b400a60200009f
:020000040000fa
:0401b800a60200009b
:020000040000fa
:0401bc00a602000097
:020000040000fa
:0401c000a602000093
:020000040000fa
:0401c400a60200008f
:020000040000fa
:0401c800a60200008b
:020000040000fa
:0401cc00a602000087
:020000040000fa
:0401d000a602000083
:020000040000fa
:0401d400a60200007f
:020000040000fa
:0401d800a60200007b
:020000040000fa
:0401dc00a602000077
:020000040000fa
:0401e000a602000073
:020000040000fa
:0401e400a60200006f
:020000040000fa
:0401e800a60200006b
:020000040000fa
:0401ec00a602000067
:020000040000fa
:0401f000a602000063
:020000040000fa
:0401f400a60200005f
:020000040000fa
:0401f800a60200005b
:020000040000fa
:0401fc00a602000057
:020000040000fa
:10020000ef8120000eff27000e0188000000000093
:10021000000020000000e000020032000001200089
:100220002002880014000700ca0007000000e00058
:1002300003003a00204c200001002000020037009b
:100240000000200001002000810f7000010032003a
:1002500014000700000020000000e000020032004f
:100260000000020000000000e404020000000000a2
:100270000040da000000fe004440a90020002000f9
:100280000000e00003003200100020009001880010
:100290004440a800000006008a1f78008b1f7800e9
:1002a00000000600a1028800800478000000eb0036
:1002b0001f003700e284440054a0b4009905ba003e
:1002c000e284440054a0b4009906ba00e2844400d9
:1002d00054a0b4000006eb00476fde00fd07b2003b
:1002e000ae018800636ce10003003a00eaff0700fa
:1002f0000000eb000e003700606ce10008003a00df
:10030000004deb000a05e800020039003420ec0043
:100310000af0a0008b05e900f9ff3e000400370059
:100320006168e100010032000086eb000b0007006d
:1003300019c7ba001905ba000e04e00003003a001c
:100340000a00e000dbff3a0000000600fe07b200f2
:10035000ae0288008a047800f5ff37000cd0a300b5
:10036000e20f4d001c00390089027800354dba00bb
:100370000a05e800020039003420ec000af0a00071
:100380008b05e9000f003200254dba000a05e80090
:10039000020039003420ec000af0a0008b05e900cf
:1003a000080032000c00e0000600320015cdba0053
:1003b0000a05e800020039003420ec000af0a00031
:1003c0008b05e9008984e80054a0b4000b00e0002c
:1003d000e2ff3a00000006009902ba00055d7800cd
:1003e0008b05e900f7ff3200c82ade00055d7800c2
:1003f0008b05e900f3ff32000c00e000f1ff320052
:1004000019ddba00eeff3700809fbe00821f780022
:100410003200f8003400f80010002000a00188002d
:1004200010002000900188000000fa0008c8bf00fa
:100430000080fb00f11c800081407800e2802000f9
:10044000000041000148780008c8bf000080fb00a0
:10045000e18020000080400010407800ed4f500007
:100460000b003a0010c0b30009e8b70008c8bf008d
:100470000080fb000000e800e28020008040eb00ec
:1004800000004100014878000868ef0003003700d1
:1004900008c8bf000040e80008e8b7008960a9006c
:1004a0000080fa003400f9003200f9004f017800b2
:1004b0004f00be0000400600809fbe003200f800e2
:1004c0003400f80010002000a00188001000200077
:1004d000900188000000fa000ac8bf000004e00094
:1004e00013003200604080000000e8006040880097
:1004f00060408000ea0f50000e003a000c28ef0028
:100500003033800000407800614060000004a200a9
:10051000614060000080fb006100600031338000ba
:100520000100a10001007000303388000100370095
:100530000c28ef008860a9000080fa003400f90060
:100540003200f9004f00be00004006000040da0013
:100550000000fe0000000500810178000002780024
:1005600030417800b14f510002003a000204e0002f
:10057000f9ff3a009480fb001380fb0000805000dc
:040580000000060071
:020000040000fa
:100584000000fa006c0007000300370000000000c0
:10059400010037000000000009c8bf000004e000ab
:1005a400faff32000968ef001200070004c8bf0018
:1005b4000004e000030032006606a8000a68ef00a9
:1005c400f5ff370005c8bf000004e0000300320057
:1005d4006606a9000a68ef00efff370006c8bf00ef
:1005e4000004e000ebff320010c0b3000ae8b700db
:1005f400e9ff37003000fa0017000900001feb0084
:100604000e03b100c054240041042200008fbe0038
:10061400f0e42400d1002000640147000089be00fa
:10062400e8004700030009008018eb007000470051
:10063400c2542400430422000288be006400400027
:10064400f264240063d420000288be0064004000e9
:100654006011b8000288be00640040006011b80058
:100664000288be00000220000e004000c254240094
:10067400430422000288be006400400022c4240017
:1006840093e424000288be0064004000b2d4200039
:10069400030020000288be00640040006011b8001e
:1006a4000288be000e00780080007800e080200000
:1006b400a8ff07000000e00005003a0010c0b300e6
:1006c40004e8b7000568ef000668ef00170037007c
:1006d4000e0078007000400080007800e080200068
:1006e4009cff07000000e00005003a0010c0b300c2
:1006f40005e8b7000468ef000668ef000b00370058
:100704000e0078000002b00080007800e080200035
:1007140090ff07000000e00004003a0010c0b3009e
:1007240006e8b7000568ef000468ef000040eb003e
:100734000080fa00000006000000fa00a70007008d
:1007440095e1a8000080fa00000006000000fa000d
:1007540090012000001d880000002800c01c8800b3
:100764009a23ef009b43a8009b83a8000080fa0013
:10077400000006000200fa00004f780000000000ac
:10078400d11c800000202000008060000000e000f8
:10079400fbff3a001e80fb00e01c88000080fa008a
:1007a400000006000600fa000e81e8000009780047
:1007b40064004700010878000000eb00000f780097
:1007c4000a0037000e80e80010007800104078001e
:1007d400e8ff07000e80e800100078008000e800c1
:1007e4000e80e800010878001e0fe800640047004e
:1007f400100078009e0f5000f2ff3e000080fa00c7
:10080400000006000000fa004627ef004827ef002a
:100814004a27ef004647a800313a8000f0f02f0045
:10082400808060000007200001007000303a8800da
:1008340010c0b3004ae7b700513a800000f021002d
:1008440001007000503a88000080fa0000000600a1
:100854000200fa00000f78001e00780000407800c3
:100864007f4060000080fb007f006000623a8000ef
:1008740001fe2f008100610001007000603a8800d1
:1008840047e7a80000000000303a800061006000e3
:100894000000e000fcff320047e7a9009038800028
:1008a4000080fa00000006000000fa006206a900b9
:1008b400020007000080fa00000006000000fa00b1
:1008c40001088000f00b200000816000600420001b
:1008d40071052000031020008049780081497800c8
:1008e40082497800a13d800000fc2f000080600058
:1008f400a000b300a03d8800213f8000f00f280035
:10090400808060000030200001007000203f8800db
:1009140000088000000178000260a000600420004c
:100924007105200003102000804978008149780077
:10093400824978000080fa00000006000000fa00f6
:1009440095a1a90094c1a9009421a900a10c80003b
:10095400f0cf2f0000806000a00c8800a10c800064
:100964000003200001007000a00c88009021ef001b
:10097400a0612000900c88000080fa0000000600ae
:020000040000fa
:100984000008000008000000800000000e080000bd
:1009940010000000800000000808000006000000ad
:0809a4008000000000000000cb
:020000040000fa
:1009ac000000fa00beff0700e2ff070065ff07002a
:1009bc0092ff07000080fa00000006000000fa0019
:1009cc00f7ff0700ecfe07000000eb000080fa00c8
:1009dc00000006000000fa009960a8009860a800ca
:0809ec000080fa000000060083
:020000040000fa
:020000040015e5
:047e0000ffffff0081
:020000040000fa
:020000040015e5
:047e2000ff1f000040
:020000040000fa
:020000040015e5
:047e3000faffff0056
:020000040000fa
:020000040015e5
:047e3800bdffff008b
:020000040000fa
:020000040015e5
:047e40009fffff00a1
:020000040000fa
:020000040015e5
:047e4800ffffff0039
:020000040000fa
:020000040015e5
:047e5000deffff0052
:020000040000fa
:020000040015e5
:047e5800ffffff0029
:00000001FF
